{
  "contractName": "Uniswap",
  "abi": [
    {
      "inputs": [
        {
          "internalType": "contract IUniswapV2Router02",
          "name": "_factory",
          "type": "address"
        },
        {
          "internalType": "address",
          "name": "_WETH",
          "type": "address"
        }
      ],
      "stateMutability": "payable",
      "type": "constructor"
    },
    {
      "stateMutability": "payable",
      "type": "fallback"
    },
    {
      "inputs": [
        {
          "internalType": "uint256",
          "name": "",
          "type": "uint256"
        }
      ],
      "name": "addressArray",
      "outputs": [
        {
          "internalType": "address",
          "name": "",
          "type": "address"
        }
      ],
      "stateMutability": "view",
      "type": "function"
    },
    {
      "inputs": [],
      "name": "auteur",
      "outputs": [
        {
          "internalType": "contract ExerciceSolution",
          "name": "",
          "type": "address"
        }
      ],
      "stateMutability": "view",
      "type": "function"
    },
    {
      "inputs": [],
      "name": "auteuraddress",
      "outputs": [
        {
          "internalType": "address",
          "name": "",
          "type": "address"
        }
      ],
      "stateMutability": "view",
      "type": "function"
    },
    {
      "inputs": [],
      "name": "uniRouter02",
      "outputs": [
        {
          "internalType": "contract IUniswapV2Router02",
          "name": "",
          "type": "address"
        }
      ],
      "stateMutability": "view",
      "type": "function"
    },
    {
      "stateMutability": "payable",
      "type": "receive"
    },
    {
      "inputs": [],
      "name": "balanceOf",
      "outputs": [
        {
          "internalType": "uint256",
          "name": "",
          "type": "uint256"
        }
      ],
      "stateMutability": "view",
      "type": "function"
    },
    {
      "inputs": [],
      "name": "addLiquidity",
      "outputs": [],
      "stateMutability": "nonpayable",
      "type": "function"
    },
    {
      "inputs": [],
      "name": "withdrawLiquidity",
      "outputs": [],
      "stateMutability": "nonpayable",
      "type": "function"
    },
    {
      "inputs": [],
      "name": "swapYourTokenForDummyToken",
      "outputs": [],
      "stateMutability": "nonpayable",
      "type": "function"
    },
    {
      "inputs": [],
      "name": "swapYourTokenForEth",
      "outputs": [],
      "stateMutability": "nonpayable",
      "type": "function"
    }
  ],
  "bytecode": "0x60806040526706f05b59d3b200006008556b204fce5e3e2502610fffffff600955604051610a0d380380610a0d8339818101604052604081101561004257600080fd5b810190808051906020019092919080519060200190929190505050816000806101000a81548173ffffffffffffffffffffffffffffffffffffffff021916908373ffffffffffffffffffffffffffffffffffffffff16021790555073dfb928438cdd50ce919242d650d07e7f2b219c94600260006101000a81548173ffffffffffffffffffffffffffffffffffffffff021916908373ffffffffffffffffffffffffffffffffffffffff160217905550505061090a806101036000396000f3fe60806040526004361061008a5760003560e01c8063722713f711610059578063722713f7146102135780637c587b221461023e5780637ea382c114610255578063c4a859931461026c578063e8078d941461028357610091565b806302bd04ac146100935780630f96cf34146100ea578063506bd503146101655780635c18f51b146101bc57610091565b3661009157005b005b34801561009f57600080fd5b506100a861029a565b604051808273ffffffffffffffffffffffffffffffffffffffff1673ffffffffffffffffffffffffffffffffffffffff16815260200191505060405180910390f35b3480156100f657600080fd5b506101236004803603602081101561010d57600080fd5b81019080803590602001909291905050506102bf565b604051808273ffffffffffffffffffffffffffffffffffffffff1673ffffffffffffffffffffffffffffffffffffffff16815260200191505060405180910390f35b34801561017157600080fd5b5061017a6102fb565b604051808273ffffffffffffffffffffffffffffffffffffffff1673ffffffffffffffffffffffffffffffffffffffff16815260200191505060405180910390f35b3480156101c857600080fd5b506101d1610321565b604051808273ffffffffffffffffffffffffffffffffffffffff1673ffffffffffffffffffffffffffffffffffffffff16815260200191505060405180910390f35b34801561021f57600080fd5b50610228610347565b6040518082815260200191505060405180910390f35b34801561024a57600080fd5b50610253610428565b005b34801561026157600080fd5b5061026a61042a565b005b34801561027857600080fd5b5061028161042c565b005b34801561028f57600080fd5b50610298610754565b005b6000809054906101000a900473ffffffffffffffffffffffffffffffffffffffff1681565b600781815481106102cc57fe5b906000526020600020016000915054906101000a900473ffffffffffffffffffffffffffffffffffffffff1681565b600260009054906101000a900473ffffffffffffffffffffffffffffffffffffffff1681565b600160009054906101000a900473ffffffffffffffffffffffffffffffffffffffff1681565b6000600160009054906101000a900473ffffffffffffffffffffffffffffffffffffffff1673ffffffffffffffffffffffffffffffffffffffff166370a08231306040518263ffffffff1660e01b8152600401808273ffffffffffffffffffffffffffffffffffffffff1673ffffffffffffffffffffffffffffffffffffffff16815260200191505060206040518083038186803b1580156103e857600080fd5b505afa1580156103fc573d6000803e3d6000fd5b505050506040513d602081101561041257600080fd5b8101908080519060200190929190505050905090565b565b565b610434610347565b60088190555060008090506007600260009054906101000a900473ffffffffffffffffffffffffffffffffffffffff169080600181540180825580915050600190039060005260206000200160009091909190916101000a81548173ffffffffffffffffffffffffffffffffffffffff021916908373ffffffffffffffffffffffffffffffffffffffff160217905550600773c778417e063141139fce010982780140aa0cd5ab9080600181540180825580915050600190039060005260206000200160009091909190916101000a81548173ffffffffffffffffffffffffffffffffffffffff021916908373ffffffffffffffffffffffffffffffffffffffff1602179055506000809054906101000a900473ffffffffffffffffffffffffffffffffffffffff1673ffffffffffffffffffffffffffffffffffffffff166318cbafe568056bc75e2d63100000836007306009546040518663ffffffff1660e01b815260040180868152602001858152602001806020018473ffffffffffffffffffffffffffffffffffffffff1673ffffffffffffffffffffffffffffffffffffffff168152602001838152602001828103825285818154815260200191508054801561065757602002820191906000526020600020905b8160009054906101000a900473ffffffffffffffffffffffffffffffffffffffff1673ffffffffffffffffffffffffffffffffffffffff168152602001906001019080831161060d575b50509650505050505050600060405180830381600087803b15801561067b57600080fd5b505af115801561068f573d6000803e3d6000fd5b505050506040513d6000823e3d601f19601f8201168201806040525060208110156106b957600080fd5b81019080805160405193929190846401000000008211156106d957600080fd5b838201915060208201858111156106ef57600080fd5b825186602082028301116401000000008211171561070c57600080fd5b8083526020830192505050908051906020019060200280838360005b83811015610743578082015181840152602081019050610728565b505050509050016040525050505050565b6000809054906101000a900473ffffffffffffffffffffffffffffffffffffffff1673ffffffffffffffffffffffffffffffffffffffff1663f305d719600260009054906101000a900473ffffffffffffffffffffffffffffffffffffffff16683635c9adc5dea00000600180306b204fce5e3e2502610fffffff6040518763ffffffff1660e01b8152600401808773ffffffffffffffffffffffffffffffffffffffff1673ffffffffffffffffffffffffffffffffffffffff1681526020018681526020018581526020018481526020018373ffffffffffffffffffffffffffffffffffffffff1673ffffffffffffffffffffffffffffffffffffffff1681526020018281526020019650505050505050606060405180830381600087803b15801561088057600080fd5b505af1158015610894573d6000803e3d6000fd5b505050506040513d60608110156108aa57600080fd5b8101908080519060200190929190805190602001909291908051906020019092919050505050505056fea26469706673582212204a7e965d25522aefd459db09dc3a04c3550457a52feade909b32baf8ae7c3d9264736f6c63430006020033",
  "source": "pragma solidity >=0.6.0 <0.8.0;\n\nimport \"@openzeppelin/contracts/token/ERC20/ERC20.sol\";\nimport \"./ExerciceSolution.sol\";\nimport \"./IUniswapV2Router02.sol\";\n\n\ncontract Uniswap{\n    \n    IUniswapV2Router02 public uniRouter02;\n\n    ExerciceSolution public auteur;\n    address public auteuraddress;\n    address tokenA;\n    address tokenB;\n    address factory;\n    address WETH;\n    address[] public addressArray;\n    //bytes4 private constant SELECTOR = bytes4(keccak256(bytes('transfer(address,uint256)')));\n    uint _amountIn=500000000000000000;\n    uint deadline=9999999999999999999999999999;\n\n    address private constant UNISWAP_V2_ROUTER = 0x7a250d5630B4cF539739dF2C5dAcb4c659F2488D;\n    address private constant wethAddress = 0xc778417E063141139Fce010982780140Aa0cD5Ab;\n\n    constructor(IUniswapV2Router02 _factory, address _WETH) public payable {\n        uniRouter02 = _factory;\n        auteuraddress=0xDfb928438CDD50ce919242D650d07e7f2b219C94;\n    }\n    \n    fallback () external payable \n\t{}\n\n\treceive () external payable \n\t{}\n\n    function balanceOf() public view returns (uint256){\n        return auteur.balanceOf(address(this));\n    }\n\n   function addLiquidity() external{\n        uniRouter02.addLiquidityETH(auteuraddress, 1000*(10**18), 1, 1, address(this), 9999999999999999999999999999);\n   }\n\tfunction withdrawLiquidity() external{\n        \n    }\n\tfunction swapYourTokenForDummyToken() external{\n        \n    }\n\n    function swapYourTokenForEth() external {\n\n        _amountIn=balanceOf();\n        //IUniswapV2Pair(factory).transferFrom(msg.sender,address(this), _amountIn);\n        //IUniswapV2Pair(factory).approve(address(this), _amountIn);\n        \n        uint amountOutMin= 0;\n        /*if (tokenA == wethAddress || tokenB == wethAddress) {\n        path = new address[](2);\n        path[0] = tokenA;\n        path[1] = tokenB;\n        } else {\n        path = new address[](3);\n        path[0] = tokenA;\n        path[1] = wethAddress;\n        path[2] = tokenB;\n        }*/\n        addressArray.push(auteuraddress);\n        addressArray.push(wethAddress);\n        uniRouter02.swapExactTokensForETH(100*(10**18), amountOutMin, addressArray,address(this), deadline);\n    }\n  \n}\n",
  "sourcePath": "/home/guignole/Documents/Test Blockchain/TD 2 Moi/contracts/Uniswap.sol",
  "compiler": {
    "name": "solc",
    "version": "0.6.2+commit.bacdbe57.Emscripten.clang"
  },
  "schemaVersion": "3.4.3",
  "updatedAt": "2022-02-11T16:29:50.349Z",
  "devdoc": {
    "methods": {}
  },
  "userdoc": {
    "methods": {}
  }
}